{
  "_format": "hh-sol-artifact-1",
  "contractName": "NFTMarketplace",
  "sourceName": "contracts/NFTMarketplace.sol",
  "abi": [
    {
      "inputs": [],
      "stateMutability": "nonpayable",
      "type": "constructor"
    },
    {
      "anonymous": false,
      "inputs": [
        {
          "indexed": true,
          "internalType": "address",
          "name": "owner",
          "type": "address"
        },
        {
          "indexed": true,
          "internalType": "address",
          "name": "approved",
          "type": "address"
        },
        {
          "indexed": true,
          "internalType": "uint256",
          "name": "tokenId",
          "type": "uint256"
        }
      ],
      "name": "Approval",
      "type": "event"
    },
    {
      "anonymous": false,
      "inputs": [
        {
          "indexed": true,
          "internalType": "address",
          "name": "owner",
          "type": "address"
        },
        {
          "indexed": true,
          "internalType": "address",
          "name": "operator",
          "type": "address"
        },
        {
          "indexed": false,
          "internalType": "bool",
          "name": "approved",
          "type": "bool"
        }
      ],
      "name": "ApprovalForAll",
      "type": "event"
    },
    {
      "anonymous": false,
      "inputs": [
        {
          "indexed": true,
          "internalType": "address",
          "name": "from",
          "type": "address"
        },
        {
          "indexed": true,
          "internalType": "address",
          "name": "to",
          "type": "address"
        },
        {
          "indexed": true,
          "internalType": "uint256",
          "name": "tokenId",
          "type": "uint256"
        }
      ],
      "name": "Transfer",
      "type": "event"
    },
    {
      "anonymous": false,
      "inputs": [
        {
          "indexed": true,
          "internalType": "uint256",
          "name": "tokenId",
          "type": "uint256"
        },
        {
          "indexed": false,
          "internalType": "address",
          "name": "seller",
          "type": "address"
        },
        {
          "indexed": false,
          "internalType": "address",
          "name": "owner",
          "type": "address"
        },
        {
          "indexed": false,
          "internalType": "uint256",
          "name": "price",
          "type": "uint256"
        },
        {
          "indexed": false,
          "internalType": "bool",
          "name": "ifSold",
          "type": "bool"
        }
      ],
      "name": "idMarketItemCreated",
      "type": "event"
    },
    {
      "inputs": [
        {
          "internalType": "address",
          "name": "to",
          "type": "address"
        },
        {
          "internalType": "uint256",
          "name": "tokenId",
          "type": "uint256"
        }
      ],
      "name": "approve",
      "outputs": [],
      "stateMutability": "nonpayable",
      "type": "function"
    },
    {
      "inputs": [
        {
          "internalType": "address",
          "name": "owner",
          "type": "address"
        }
      ],
      "name": "balanceOf",
      "outputs": [
        {
          "internalType": "uint256",
          "name": "",
          "type": "uint256"
        }
      ],
      "stateMutability": "view",
      "type": "function"
    },
    {
      "inputs": [],
      "name": "fetchListedNFTs",
      "outputs": [
        {
          "components": [
            {
              "internalType": "uint256",
              "name": "tokenId",
              "type": "uint256"
            },
            {
              "internalType": "address payable",
              "name": "seller",
              "type": "address"
            },
            {
              "internalType": "address payable",
              "name": "owner",
              "type": "address"
            },
            {
              "internalType": "address payable",
              "name": "originalMinter",
              "type": "address"
            },
            {
              "internalType": "uint256",
              "name": "price",
              "type": "uint256"
            },
            {
              "internalType": "bool",
              "name": "ifSold",
              "type": "bool"
            }
          ],
          "internalType": "struct NFTMarketplace.MarketItem[]",
          "name": "",
          "type": "tuple[]"
        }
      ],
      "stateMutability": "view",
      "type": "function"
    },
    {
      "inputs": [],
      "name": "fetchListingPrice",
      "outputs": [
        {
          "internalType": "uint256",
          "name": "",
          "type": "uint256"
        }
      ],
      "stateMutability": "view",
      "type": "function"
    },
    {
      "inputs": [
        {
          "internalType": "uint256",
          "name": "tokenId",
          "type": "uint256"
        }
      ],
      "name": "fetchOriginalMinter",
      "outputs": [
        {
          "internalType": "address",
          "name": "",
          "type": "address"
        }
      ],
      "stateMutability": "view",
      "type": "function"
    },
    {
      "inputs": [],
      "name": "fetchOwnedNFTs",
      "outputs": [
        {
          "components": [
            {
              "internalType": "uint256",
              "name": "tokenId",
              "type": "uint256"
            },
            {
              "internalType": "address payable",
              "name": "seller",
              "type": "address"
            },
            {
              "internalType": "address payable",
              "name": "owner",
              "type": "address"
            },
            {
              "internalType": "address payable",
              "name": "originalMinter",
              "type": "address"
            },
            {
              "internalType": "uint256",
              "name": "price",
              "type": "uint256"
            },
            {
              "internalType": "bool",
              "name": "ifSold",
              "type": "bool"
            }
          ],
          "internalType": "struct NFTMarketplace.MarketItem[]",
          "name": "",
          "type": "tuple[]"
        }
      ],
      "stateMutability": "view",
      "type": "function"
    },
    {
      "inputs": [],
      "name": "fetchUnsoldNFTs",
      "outputs": [
        {
          "components": [
            {
              "internalType": "uint256",
              "name": "tokenId",
              "type": "uint256"
            },
            {
              "internalType": "address payable",
              "name": "seller",
              "type": "address"
            },
            {
              "internalType": "address payable",
              "name": "owner",
              "type": "address"
            },
            {
              "internalType": "address payable",
              "name": "originalMinter",
              "type": "address"
            },
            {
              "internalType": "uint256",
              "name": "price",
              "type": "uint256"
            },
            {
              "internalType": "bool",
              "name": "ifSold",
              "type": "bool"
            }
          ],
          "internalType": "struct NFTMarketplace.MarketItem[]",
          "name": "",
          "type": "tuple[]"
        }
      ],
      "stateMutability": "view",
      "type": "function"
    },
    {
      "inputs": [
        {
          "internalType": "uint256",
          "name": "tokenId",
          "type": "uint256"
        }
      ],
      "name": "getApproved",
      "outputs": [
        {
          "internalType": "address",
          "name": "",
          "type": "address"
        }
      ],
      "stateMutability": "view",
      "type": "function"
    },
    {
      "inputs": [
        {
          "internalType": "address",
          "name": "owner",
          "type": "address"
        },
        {
          "internalType": "address",
          "name": "operator",
          "type": "address"
        }
      ],
      "name": "isApprovedForAll",
      "outputs": [
        {
          "internalType": "bool",
          "name": "",
          "type": "bool"
        }
      ],
      "stateMutability": "view",
      "type": "function"
    },
    {
      "inputs": [
        {
          "internalType": "string",
          "name": "tokenURI",
          "type": "string"
        },
        {
          "internalType": "uint256",
          "name": "price",
          "type": "uint256"
        }
      ],
      "name": "mintNFT",
      "outputs": [
        {
          "internalType": "uint256",
          "name": "",
          "type": "uint256"
        }
      ],
      "stateMutability": "payable",
      "type": "function"
    },
    {
      "inputs": [],
      "name": "name",
      "outputs": [
        {
          "internalType": "string",
          "name": "",
          "type": "string"
        }
      ],
      "stateMutability": "view",
      "type": "function"
    },
    {
      "inputs": [
        {
          "internalType": "uint256",
          "name": "tokenId",
          "type": "uint256"
        }
      ],
      "name": "ownerOf",
      "outputs": [
        {
          "internalType": "address",
          "name": "",
          "type": "address"
        }
      ],
      "stateMutability": "view",
      "type": "function"
    },
    {
      "inputs": [
        {
          "internalType": "uint256",
          "name": "tokenId",
          "type": "uint256"
        }
      ],
      "name": "purchaseNFT",
      "outputs": [],
      "stateMutability": "payable",
      "type": "function"
    },
    {
      "inputs": [
        {
          "internalType": "uint256",
          "name": "tokenId",
          "type": "uint256"
        },
        {
          "internalType": "uint256",
          "name": "price",
          "type": "uint256"
        }
      ],
      "name": "reListNFTForSale",
      "outputs": [],
      "stateMutability": "payable",
      "type": "function"
    },
    {
      "inputs": [
        {
          "internalType": "address",
          "name": "from",
          "type": "address"
        },
        {
          "internalType": "address",
          "name": "to",
          "type": "address"
        },
        {
          "internalType": "uint256",
          "name": "tokenId",
          "type": "uint256"
        }
      ],
      "name": "safeTransferFrom",
      "outputs": [],
      "stateMutability": "nonpayable",
      "type": "function"
    },
    {
      "inputs": [
        {
          "internalType": "address",
          "name": "from",
          "type": "address"
        },
        {
          "internalType": "address",
          "name": "to",
          "type": "address"
        },
        {
          "internalType": "uint256",
          "name": "tokenId",
          "type": "uint256"
        },
        {
          "internalType": "bytes",
          "name": "data",
          "type": "bytes"
        }
      ],
      "name": "safeTransferFrom",
      "outputs": [],
      "stateMutability": "nonpayable",
      "type": "function"
    },
    {
      "inputs": [
        {
          "internalType": "address",
          "name": "operator",
          "type": "address"
        },
        {
          "internalType": "bool",
          "name": "approved",
          "type": "bool"
        }
      ],
      "name": "setApprovalForAll",
      "outputs": [],
      "stateMutability": "nonpayable",
      "type": "function"
    },
    {
      "inputs": [
        {
          "internalType": "bytes4",
          "name": "interfaceId",
          "type": "bytes4"
        }
      ],
      "name": "supportsInterface",
      "outputs": [
        {
          "internalType": "bool",
          "name": "",
          "type": "bool"
        }
      ],
      "stateMutability": "view",
      "type": "function"
    },
    {
      "inputs": [],
      "name": "symbol",
      "outputs": [
        {
          "internalType": "string",
          "name": "",
          "type": "string"
        }
      ],
      "stateMutability": "view",
      "type": "function"
    },
    {
      "inputs": [
        {
          "internalType": "uint256",
          "name": "tokenId",
          "type": "uint256"
        }
      ],
      "name": "tokenURI",
      "outputs": [
        {
          "internalType": "string",
          "name": "",
          "type": "string"
        }
      ],
      "stateMutability": "view",
      "type": "function"
    },
    {
      "inputs": [
        {
          "internalType": "address",
          "name": "from",
          "type": "address"
        },
        {
          "internalType": "address",
          "name": "to",
          "type": "address"
        },
        {
          "internalType": "uint256",
          "name": "tokenId",
          "type": "uint256"
        }
      ],
      "name": "transferFrom",
      "outputs": [],
      "stateMutability": "nonpayable",
      "type": "function"
    },
    {
      "inputs": [
        {
          "internalType": "uint256",
          "name": "_ListingPrice",
          "type": "uint256"
        }
      ],
      "name": "updateListingPrice",
      "outputs": [],
      "stateMutability": "payable",
      "type": "function"
    }
  ],
  "bytecode": "0x60806040526605543df729c0006009553480156200001c57600080fd5b506040518060400160405280601381526020017f4e4654204d657461766572736520546f6b656e000000000000000000000000008152506040518060400160405280600581526020017f4d594e465400000000000000000000000000000000000000000000000000000081525081600090816200009a919062000370565b508060019081620000ac919062000370565b50505033600a60006101000a81548173ffffffffffffffffffffffffffffffffffffffff021916908373ffffffffffffffffffffffffffffffffffffffff16021790555062000457565b600081519050919050565b7f4e487b7100000000000000000000000000000000000000000000000000000000600052604160045260246000fd5b7f4e487b7100000000000000000000000000000000000000000000000000000000600052602260045260246000fd5b600060028204905060018216806200017857607f821691505b6020821081036200018e576200018d62000130565b5b50919050565b60008190508160005260206000209050919050565b60006020601f8301049050919050565b600082821b905092915050565b600060088302620001f87fffffffffffffffffffffffffffffffffffffffffffffffffffffffffffffffff82620001b9565b620002048683620001b9565b95508019841693508086168417925050509392505050565b6000819050919050565b6000819050919050565b6000620002516200024b62000245846200021c565b62000226565b6200021c565b9050919050565b6000819050919050565b6200026d8362000230565b620002856200027c8262000258565b848454620001c6565b825550505050565b600090565b6200029c6200028d565b620002a981848462000262565b505050565b5b81811015620002d157620002c560008262000292565b600181019050620002af565b5050565b601f8211156200032057620002ea8162000194565b620002f584620001a9565b8101602085101562000305578190505b6200031d6200031485620001a9565b830182620002ae565b50505b505050565b600082821c905092915050565b6000620003456000198460080262000325565b1980831691505092915050565b600062000360838362000332565b9150826002028217905092915050565b6200037b82620000f6565b67ffffffffffffffff81111562000397576200039662000101565b5b620003a382546200015f565b620003b0828285620002d5565b600060209050601f831160018114620003e85760008415620003d3578287015190505b620003df858262000352565b8655506200044f565b601f198416620003f88662000194565b60005b828110156200042257848901518255600182019150602085019450602081019050620003fb565b868310156200044257848901516200043e601f89168262000332565b8355505b6001600288020188555050505b505050505050565b61430b80620004676000396000f3fe6080604052600436106101355760003560e01c806370a08231116100ab578063b88d4fde1161006f578063b88d4fde14610402578063c87b56dd1461042b578063d374fa8914610468578063e2bc26b214610493578063e985e9c5146104be578063eb861aea146104fb57610135565b806370a082311461032a578063831086a21461036757806395d89b4114610392578063a22cb465146103bd578063ae677aa3146103e657610135565b806323b872dd116100fd57806323b872dd1461022457806342842e0e1461024d57806350ad68c6146102765780635afa3a72146102a15780636352211e146102d15780636a363ee81461030e57610135565b806301ffc9a71461013a57806306fdde0314610177578063081812fc146101a2578063095ea7b3146101df578063150bde0314610208575b600080fd5b34801561014657600080fd5b50610161600480360381019061015c9190612b5a565b610538565b60405161016e9190612ba2565b60405180910390f35b34801561018357600080fd5b5061018c61061a565b6040516101999190612c4d565b60405180910390f35b3480156101ae57600080fd5b506101c960048036038101906101c49190612ca5565b6106ac565b6040516101d69190612d13565b60405180910390f35b3480156101eb57600080fd5b5061020660048036038101906102019190612d5a565b6106f2565b005b610222600480360381019061021d9190612ca5565b610809565b005b34801561023057600080fd5b5061024b60048036038101906102469190612d9a565b6109eb565b005b34801561025957600080fd5b50610274600480360381019061026f9190612d9a565b610a4b565b005b34801561028257600080fd5b5061028b610a6b565b6040516102989190612dfc565b60405180910390f35b6102bb60048036038101906102b69190612f4c565b610a75565b6040516102c89190612dfc565b60405180910390f35b3480156102dd57600080fd5b506102f860048036038101906102f39190612ca5565b610ab7565b6040516103059190612d13565b60405180910390f35b61032860048036038101906103239190612fa8565b610b68565b005b34801561033657600080fd5b50610351600480360381019061034c9190612fe8565b610d8d565b60405161035e9190612dfc565b60405180910390f35b34801561037357600080fd5b5061037c610e44565b604051610389919061317e565b60405180910390f35b34801561039e57600080fd5b506103a7611186565b6040516103b49190612c4d565b60405180910390f35b3480156103c957600080fd5b506103e460048036038101906103df91906131cc565b611218565b005b61040060048036038101906103fb9190612ca5565b61122e565b005b34801561040e57600080fd5b50610429600480360381019061042491906132ad565b6112c8565b005b34801561043757600080fd5b50610452600480360381019061044d9190612ca5565b61132a565b60405161045f9190612c4d565b60405180910390f35b34801561047457600080fd5b5061047d61143c565b60405161048a919061317e565b60405180910390f35b34801561049f57600080fd5b506104a86116fa565b6040516104b5919061317e565b60405180910390f35b3480156104ca57600080fd5b506104e560048036038101906104e09190613330565b611a3c565b6040516104f29190612ba2565b60405180910390f35b34801561050757600080fd5b50610522600480360381019061051d9190612ca5565b611ad0565b60405161052f9190612d13565b60405180910390f35b60007f80ac58cd000000000000000000000000000000000000000000000000000000007bffffffffffffffffffffffffffffffffffffffffffffffffffffffff1916827bffffffffffffffffffffffffffffffffffffffffffffffffffffffff1916148061060357507f5b5e139f000000000000000000000000000000000000000000000000000000007bffffffffffffffffffffffffffffffffffffffffffffffffffffffff1916827bffffffffffffffffffffffffffffffffffffffffffffffffffffffff1916145b80610613575061061282611b10565b5b9050919050565b6060600080546106299061339f565b80601f01602080910402602001604051908101604052809291908181526020018280546106559061339f565b80156106a25780601f10610677576101008083540402835291602001916106a2565b820191906000526020600020905b81548152906001019060200180831161068557829003601f168201915b5050505050905090565b60006106b782611b7a565b6004600083815260200190815260200160002060009054906101000a900473ffffffffffffffffffffffffffffffffffffffff169050919050565b60006106fd82610ab7565b90508073ffffffffffffffffffffffffffffffffffffffff168373ffffffffffffffffffffffffffffffffffffffff160361076d576040517f08c379a000000000000000000000000000000000000000000000000000000000815260040161076490613442565b60405180910390fd5b8073ffffffffffffffffffffffffffffffffffffffff1661078c611bc5565b73ffffffffffffffffffffffffffffffffffffffff1614806107bb57506107ba816107b5611bc5565b611a3c565b5b6107fa576040517f08c379a00000000000000000000000000000000000000000000000000000000081526004016107f1906134d4565b60405180910390fd5b6108048383611bcd565b505050565b6000600b6000838152602001908152602001600020600401549050803414610866576040517f08c379a000000000000000000000000000000000000000000000000000000000815260040161085d90613566565b60405180910390fd5b33600b600084815260200190815260200160002060020160006101000a81548173ffffffffffffffffffffffffffffffffffffffff021916908373ffffffffffffffffffffffffffffffffffffffff1602179055506001600b600084815260200190815260200160002060050160006101000a81548160ff0219169083151502179055506108f46008611c86565b6108ff303384611c9c565b600a60009054906101000a900473ffffffffffffffffffffffffffffffffffffffff1673ffffffffffffffffffffffffffffffffffffffff166108fc6009549081150290604051600060405180830381858888f19350505050158015610969573d6000803e3d6000fd5b50600b600083815260200190815260200160002060010160009054906101000a900473ffffffffffffffffffffffffffffffffffffffff1673ffffffffffffffffffffffffffffffffffffffff166108fc349081150290604051600060405180830381858888f193505050501580156109e6573d6000803e3d6000fd5b505050565b6109fc6109f6611bc5565b82611f02565b610a3b576040517f08c379a0000000000000000000000000000000000000000000000000000000008152600401610a32906135f8565b60405180910390fd5b610a46838383611c9c565b505050565b610a66838383604051806020016040528060008152506112c8565b505050565b6000600954905090565b6000610a816007611c86565b6000610a8d6007611f97565b9050610a993382611fa5565b610aa3818561217e565b610aad81846121eb565b8091505092915050565b6000806002600084815260200190815260200160002060009054906101000a900473ffffffffffffffffffffffffffffffffffffffff169050600073ffffffffffffffffffffffffffffffffffffffff168173ffffffffffffffffffffffffffffffffffffffff1603610b5f576040517f08c379a0000000000000000000000000000000000000000000000000000000008152600401610b5690613664565b60405180910390fd5b80915050919050565b3373ffffffffffffffffffffffffffffffffffffffff16600b600084815260200190815260200160002060020160009054906101000a900473ffffffffffffffffffffffffffffffffffffffff1673ffffffffffffffffffffffffffffffffffffffff1614610c0c576040517f08c379a0000000000000000000000000000000000000000000000000000000008152600401610c03906136f6565b60405180910390fd5b6009543414610c50576040517f08c379a0000000000000000000000000000000000000000000000000000000008152600401610c4790613788565b60405180910390fd5b60011515600b600084815260200190815260200160002060050160009054906101000a900460ff16151503610c8a57610c896008612451565b5b6000600b600084815260200190815260200160002060050160006101000a81548160ff02191690831515021790555080600b60008481526020019081526020016000206004018190555033600b600084815260200190815260200160002060010160006101000a81548173ffffffffffffffffffffffffffffffffffffffff021916908373ffffffffffffffffffffffffffffffffffffffff16021790555030600b600084815260200190815260200160002060020160006101000a81548173ffffffffffffffffffffffffffffffffffffffff021916908373ffffffffffffffffffffffffffffffffffffffff160217905550610d89333084611c9c565b5050565b60008073ffffffffffffffffffffffffffffffffffffffff168273ffffffffffffffffffffffffffffffffffffffff1603610dfd576040517f08c379a0000000000000000000000000000000000000000000000000000000008152600401610df49061381a565b60405180910390fd5b600360008373ffffffffffffffffffffffffffffffffffffffff1673ffffffffffffffffffffffffffffffffffffffff168152602001908152602001600020549050919050565b60606000610e526007611f97565b905060008060005b83811015610efa573373ffffffffffffffffffffffffffffffffffffffff16600b6000600184610e8a9190613869565b815260200190815260200160002060010160009054906101000a900473ffffffffffffffffffffffffffffffffffffffff1673ffffffffffffffffffffffffffffffffffffffff1603610ee757600183610ee49190613869565b92505b8080610ef29061389d565b915050610e5a565b5060008267ffffffffffffffff811115610f1757610f16612e21565b5b604051908082528060200260200182016040528015610f5057816020015b610f3d612a74565b815260200190600190039081610f355790505b50905060005b8481101561117b573373ffffffffffffffffffffffffffffffffffffffff16600b6000600184610f869190613869565b815260200190815260200160002060010160009054906101000a900473ffffffffffffffffffffffffffffffffffffffff1673ffffffffffffffffffffffffffffffffffffffff1603611168576000600182610fe29190613869565b90506000600b60008381526020019081526020016000209050806040518060c0016040529081600082015481526020016001820160009054906101000a900473ffffffffffffffffffffffffffffffffffffffff1673ffffffffffffffffffffffffffffffffffffffff1673ffffffffffffffffffffffffffffffffffffffff1681526020016002820160009054906101000a900473ffffffffffffffffffffffffffffffffffffffff1673ffffffffffffffffffffffffffffffffffffffff1673ffffffffffffffffffffffffffffffffffffffff1681526020016003820160009054906101000a900473ffffffffffffffffffffffffffffffffffffffff1673ffffffffffffffffffffffffffffffffffffffff1673ffffffffffffffffffffffffffffffffffffffff168152602001600482015481526020016005820160009054906101000a900460ff16151515158152505084868151811061114b5761114a6138e5565b5b60200260200101819052506001856111639190613869565b945050505b80806111739061389d565b915050610f56565b508094505050505090565b6060600180546111959061339f565b80601f01602080910402602001604051908101604052809291908181526020018280546111c19061339f565b801561120e5780601f106111e35761010080835404028352916020019161120e565b820191906000526020600020905b8154815290600101906020018083116111f157829003601f168201915b5050505050905090565b61122a611223611bc5565b83836124ad565b5050565b600a60009054906101000a900473ffffffffffffffffffffffffffffffffffffffff1673ffffffffffffffffffffffffffffffffffffffff163373ffffffffffffffffffffffffffffffffffffffff16146112be576040517f08c379a00000000000000000000000000000000000000000000000000000000081526004016112b590613986565b60405180910390fd5b8060098190555050565b6112d96112d3611bc5565b83611f02565b611318576040517f08c379a000000000000000000000000000000000000000000000000000000000815260040161130f906135f8565b60405180910390fd5b61132484848484612619565b50505050565b606061133582611b7a565b60006006600084815260200190815260200160002080546113559061339f565b80601f01602080910402602001604051908101604052809291908181526020018280546113819061339f565b80156113ce5780601f106113a3576101008083540402835291602001916113ce565b820191906000526020600020905b8154815290600101906020018083116113b157829003601f168201915b5050505050905060006113df612675565b905060008151036113f4578192505050611437565b6000825111156114295780826040516020016114119291906139e2565b60405160208183030381529060405292505050611437565b6114328461268c565b925050505b919050565b6060600061144a6007611f97565b905060006114586008611f97565b6114626007611f97565b61146c9190613a06565b90506000808267ffffffffffffffff81111561148b5761148a612e21565b5b6040519080825280602002602001820160405280156114c457816020015b6114b1612a74565b8152602001906001900390816114a95790505b50905060005b848110156116ef573073ffffffffffffffffffffffffffffffffffffffff16600b60006001846114fa9190613869565b815260200190815260200160002060020160009054906101000a900473ffffffffffffffffffffffffffffffffffffffff1673ffffffffffffffffffffffffffffffffffffffff16036116dc5760006001826115569190613869565b90506000600b60008381526020019081526020016000209050806040518060c0016040529081600082015481526020016001820160009054906101000a900473ffffffffffffffffffffffffffffffffffffffff1673ffffffffffffffffffffffffffffffffffffffff1673ffffffffffffffffffffffffffffffffffffffff1681526020016002820160009054906101000a900473ffffffffffffffffffffffffffffffffffffffff1673ffffffffffffffffffffffffffffffffffffffff1673ffffffffffffffffffffffffffffffffffffffff1681526020016003820160009054906101000a900473ffffffffffffffffffffffffffffffffffffffff1673ffffffffffffffffffffffffffffffffffffffff1673ffffffffffffffffffffffffffffffffffffffff168152602001600482015481526020016005820160009054906101000a900460ff1615151515815250508486815181106116bf576116be6138e5565b5b60200260200101819052506001856116d79190613869565b945050505b80806116e79061389d565b9150506114ca565b508094505050505090565b606060006117086007611f97565b905060008060005b838110156117b0573373ffffffffffffffffffffffffffffffffffffffff16600b60006001846117409190613869565b815260200190815260200160002060020160009054906101000a900473ffffffffffffffffffffffffffffffffffffffff1673ffffffffffffffffffffffffffffffffffffffff160361179d5760018361179a9190613869565b92505b80806117a89061389d565b915050611710565b5060008267ffffffffffffffff8111156117cd576117cc612e21565b5b60405190808252806020026020018201604052801561180657816020015b6117f3612a74565b8152602001906001900390816117eb5790505b50905060005b84811015611a31573373ffffffffffffffffffffffffffffffffffffffff16600b600060018461183c9190613869565b815260200190815260200160002060020160009054906101000a900473ffffffffffffffffffffffffffffffffffffffff1673ffffffffffffffffffffffffffffffffffffffff1603611a1e5760006001826118989190613869565b90506000600b60008381526020019081526020016000209050806040518060c0016040529081600082015481526020016001820160009054906101000a900473ffffffffffffffffffffffffffffffffffffffff1673ffffffffffffffffffffffffffffffffffffffff1673ffffffffffffffffffffffffffffffffffffffff1681526020016002820160009054906101000a900473ffffffffffffffffffffffffffffffffffffffff1673ffffffffffffffffffffffffffffffffffffffff1673ffffffffffffffffffffffffffffffffffffffff1681526020016003820160009054906101000a900473ffffffffffffffffffffffffffffffffffffffff1673ffffffffffffffffffffffffffffffffffffffff1673ffffffffffffffffffffffffffffffffffffffff168152602001600482015481526020016005820160009054906101000a900460ff161515151581525050848681518110611a0157611a006138e5565b5b6020026020010181905250600185611a199190613869565b945050505b8080611a299061389d565b91505061180c565b508094505050505090565b6000600560008473ffffffffffffffffffffffffffffffffffffffff1673ffffffffffffffffffffffffffffffffffffffff16815260200190815260200160002060008373ffffffffffffffffffffffffffffffffffffffff1673ffffffffffffffffffffffffffffffffffffffff16815260200190815260200160002060009054906101000a900460ff16905092915050565b6000600b600083815260200190815260200160002060030160009054906101000a900473ffffffffffffffffffffffffffffffffffffffff169050919050565b60007f01ffc9a7000000000000000000000000000000000000000000000000000000007bffffffffffffffffffffffffffffffffffffffffffffffffffffffff1916827bffffffffffffffffffffffffffffffffffffffffffffffffffffffff1916149050919050565b611b83816126f4565b611bc2576040517f08c379a0000000000000000000000000000000000000000000000000000000008152600401611bb990613664565b60405180910390fd5b50565b600033905090565b816004600083815260200190815260200160002060006101000a81548173ffffffffffffffffffffffffffffffffffffffff021916908373ffffffffffffffffffffffffffffffffffffffff160217905550808273ffffffffffffffffffffffffffffffffffffffff16611c4083610ab7565b73ffffffffffffffffffffffffffffffffffffffff167f8c5be1e5ebec7d5bd14f71427d1e84f3dd0314c0f7b2291e5b200ac8c7c3b92560405160405180910390a45050565b6001816000016000828254019250508190555050565b8273ffffffffffffffffffffffffffffffffffffffff16611cbc82610ab7565b73ffffffffffffffffffffffffffffffffffffffff1614611d12576040517f08c379a0000000000000000000000000000000000000000000000000000000008152600401611d0990613aac565b60405180910390fd5b600073ffffffffffffffffffffffffffffffffffffffff168273ffffffffffffffffffffffffffffffffffffffff1603611d81576040517f08c379a0000000000000000000000000000000000000000000000000000000008152600401611d7890613b3e565b60405180910390fd5b611d8c838383612760565b611d97600082611bcd565b6001600360008573ffffffffffffffffffffffffffffffffffffffff1673ffffffffffffffffffffffffffffffffffffffff1681526020019081526020016000206000828254611de79190613a06565b925050819055506001600360008473ffffffffffffffffffffffffffffffffffffffff1673ffffffffffffffffffffffffffffffffffffffff1681526020019081526020016000206000828254611e3e9190613869565b92505081905550816002600083815260200190815260200160002060006101000a81548173ffffffffffffffffffffffffffffffffffffffff021916908373ffffffffffffffffffffffffffffffffffffffff160217905550808273ffffffffffffffffffffffffffffffffffffffff168473ffffffffffffffffffffffffffffffffffffffff167fddf252ad1be2c89b69c2b068fc378daa952ba7f163c4a11628f55a4df523b3ef60405160405180910390a4611efd838383612765565b505050565b600080611f0e83610ab7565b90508073ffffffffffffffffffffffffffffffffffffffff168473ffffffffffffffffffffffffffffffffffffffff161480611f505750611f4f8185611a3c565b5b80611f8e57508373ffffffffffffffffffffffffffffffffffffffff16611f76846106ac565b73ffffffffffffffffffffffffffffffffffffffff16145b91505092915050565b600081600001549050919050565b600073ffffffffffffffffffffffffffffffffffffffff168273ffffffffffffffffffffffffffffffffffffffff1603612014576040517f08c379a000000000000000000000000000000000000000000000000000000000815260040161200b90613baa565b60405180910390fd5b61201d816126f4565b1561205d576040517f08c379a000000000000000000000000000000000000000000000000000000000815260040161205490613c16565b60405180910390fd5b61206960008383612760565b6001600360008473ffffffffffffffffffffffffffffffffffffffff1673ffffffffffffffffffffffffffffffffffffffff16815260200190815260200160002060008282546120b99190613869565b92505081905550816002600083815260200190815260200160002060006101000a81548173ffffffffffffffffffffffffffffffffffffffff021916908373ffffffffffffffffffffffffffffffffffffffff160217905550808273ffffffffffffffffffffffffffffffffffffffff16600073ffffffffffffffffffffffffffffffffffffffff167fddf252ad1be2c89b69c2b068fc378daa952ba7f163c4a11628f55a4df523b3ef60405160405180910390a461217a60008383612765565b5050565b612187826126f4565b6121c6576040517f08c379a00000000000000000000000000000000000000000000000000000000081526004016121bd90613ca8565b60405180910390fd5b806006600084815260200190815260200160002090816121e69190613e74565b505050565b6000811161222e576040517f08c379a000000000000000000000000000000000000000000000000000000000815260040161222590613f92565b60405180910390fd5b6009543414612272576040517f08c379a000000000000000000000000000000000000000000000000000000000815260040161226990613788565b60405180910390fd5b6040518060c001604052808381526020013373ffffffffffffffffffffffffffffffffffffffff1681526020013073ffffffffffffffffffffffffffffffffffffffff1681526020013373ffffffffffffffffffffffffffffffffffffffff16815260200182815260200160001515815250600b60008481526020019081526020016000206000820151816000015560208201518160010160006101000a81548173ffffffffffffffffffffffffffffffffffffffff021916908373ffffffffffffffffffffffffffffffffffffffff16021790555060408201518160020160006101000a81548173ffffffffffffffffffffffffffffffffffffffff021916908373ffffffffffffffffffffffffffffffffffffffff16021790555060608201518160030160006101000a81548173ffffffffffffffffffffffffffffffffffffffff021916908373ffffffffffffffffffffffffffffffffffffffff1602179055506080820151816004015560a08201518160050160006101000a81548160ff02191690831515021790555090505061240e333084611c9c565b817fdebdb32cb5230ab727c9c361b16fdb2015df225c10e6a3e7f60ecd5dc5be451633308460006040516124459493929190613fb2565b60405180910390a25050565b6000816000015490506000811161249d576040517f08c379a000000000000000000000000000000000000000000000000000000000815260040161249490614043565b60405180910390fd5b6001810382600001819055505050565b8173ffffffffffffffffffffffffffffffffffffffff168373ffffffffffffffffffffffffffffffffffffffff160361251b576040517f08c379a0000000000000000000000000000000000000000000000000000000008152600401612512906140af565b60405180910390fd5b80600560008573ffffffffffffffffffffffffffffffffffffffff1673ffffffffffffffffffffffffffffffffffffffff16815260200190815260200160002060008473ffffffffffffffffffffffffffffffffffffffff1673ffffffffffffffffffffffffffffffffffffffff16815260200190815260200160002060006101000a81548160ff0219169083151502179055508173ffffffffffffffffffffffffffffffffffffffff168373ffffffffffffffffffffffffffffffffffffffff167f17307eab39ab6107e8899845ad3d59bd9653f200f220920489ca2b5937696c318360405161260c9190612ba2565b60405180910390a3505050565b612624848484611c9c565b6126308484848461276a565b61266f576040517f08c379a000000000000000000000000000000000000000000000000000000000815260040161266690614141565b60405180910390fd5b50505050565b606060405180602001604052806000815250905090565b606061269782611b7a565b60006126a1612675565b905060008151116126c157604051806020016040528060008152506126ec565b806126cb846128f1565b6040516020016126dc9291906139e2565b6040516020818303038152906040525b915050919050565b60008073ffffffffffffffffffffffffffffffffffffffff166002600084815260200190815260200160002060009054906101000a900473ffffffffffffffffffffffffffffffffffffffff1673ffffffffffffffffffffffffffffffffffffffff1614159050919050565b505050565b505050565b600061278b8473ffffffffffffffffffffffffffffffffffffffff16612a51565b156128e4578373ffffffffffffffffffffffffffffffffffffffff1663150b7a026127b4611bc5565b8786866040518563ffffffff1660e01b81526004016127d694939291906141b6565b6020604051808303816000875af192505050801561281257506040513d601f19601f8201168201806040525081019061280f9190614217565b60015b612894573d8060008114612842576040519150601f19603f3d011682016040523d82523d6000602084013e612847565b606091505b50600081510361288c576040517f08c379a000000000000000000000000000000000000000000000000000000000815260040161288390614141565b60405180910390fd5b805181602001fd5b63150b7a0260e01b7bffffffffffffffffffffffffffffffffffffffffffffffffffffffff1916817bffffffffffffffffffffffffffffffffffffffffffffffffffffffff1916149150506128e9565b600190505b949350505050565b606060008203612938576040518060400160405280600181526020017f30000000000000000000000000000000000000000000000000000000000000008152509050612a4c565b600082905060005b6000821461296a5780806129539061389d565b915050600a826129639190614273565b9150612940565b60008167ffffffffffffffff81111561298657612985612e21565b5b6040519080825280601f01601f1916602001820160405280156129b85781602001600182028036833780820191505090505b5090505b60008514612a45576001826129d19190613a06565b9150600a856129e091906142a4565b60306129ec9190613869565b60f81b818381518110612a0257612a016138e5565b5b60200101907effffffffffffffffffffffffffffffffffffffffffffffffffffffffffffff1916908160001a905350600a85612a3e9190614273565b94506129bc565b8093505050505b919050565b6000808273ffffffffffffffffffffffffffffffffffffffff163b119050919050565b6040518060c0016040528060008152602001600073ffffffffffffffffffffffffffffffffffffffff168152602001600073ffffffffffffffffffffffffffffffffffffffff168152602001600073ffffffffffffffffffffffffffffffffffffffff168152602001600081526020016000151581525090565b6000604051905090565b600080fd5b600080fd5b60007fffffffff0000000000000000000000000000000000000000000000000000000082169050919050565b612b3781612b02565b8114612b4257600080fd5b50565b600081359050612b5481612b2e565b92915050565b600060208284031215612b7057612b6f612af8565b5b6000612b7e84828501612b45565b91505092915050565b60008115159050919050565b612b9c81612b87565b82525050565b6000602082019050612bb76000830184612b93565b92915050565b600081519050919050565b600082825260208201905092915050565b60005b83811015612bf7578082015181840152602081019050612bdc565b60008484015250505050565b6000601f19601f8301169050919050565b6000612c1f82612bbd565b612c298185612bc8565b9350612c39818560208601612bd9565b612c4281612c03565b840191505092915050565b60006020820190508181036000830152612c678184612c14565b905092915050565b6000819050919050565b612c8281612c6f565b8114612c8d57600080fd5b50565b600081359050612c9f81612c79565b92915050565b600060208284031215612cbb57612cba612af8565b5b6000612cc984828501612c90565b91505092915050565b600073ffffffffffffffffffffffffffffffffffffffff82169050919050565b6000612cfd82612cd2565b9050919050565b612d0d81612cf2565b82525050565b6000602082019050612d286000830184612d04565b92915050565b612d3781612cf2565b8114612d4257600080fd5b50565b600081359050612d5481612d2e565b92915050565b60008060408385031215612d7157612d70612af8565b5b6000612d7f85828601612d45565b9250506020612d9085828601612c90565b9150509250929050565b600080600060608486031215612db357612db2612af8565b5b6000612dc186828701612d45565b9350506020612dd286828701612d45565b9250506040612de386828701612c90565b9150509250925092565b612df681612c6f565b82525050565b6000602082019050612e116000830184612ded565b92915050565b600080fd5b600080fd5b7f4e487b7100000000000000000000000000000000000000000000000000000000600052604160045260246000fd5b612e5982612c03565b810181811067ffffffffffffffff82111715612e7857612e77612e21565b5b80604052505050565b6000612e8b612aee565b9050612e978282612e50565b919050565b600067ffffffffffffffff821115612eb757612eb6612e21565b5b612ec082612c03565b9050602081019050919050565b82818337600083830152505050565b6000612eef612eea84612e9c565b612e81565b905082815260208101848484011115612f0b57612f0a612e1c565b5b612f16848285612ecd565b509392505050565b600082601f830112612f3357612f32612e17565b5b8135612f43848260208601612edc565b91505092915050565b60008060408385031215612f6357612f62612af8565b5b600083013567ffffffffffffffff811115612f8157612f80612afd565b5b612f8d85828601612f1e565b9250506020612f9e85828601612c90565b9150509250929050565b60008060408385031215612fbf57612fbe612af8565b5b6000612fcd85828601612c90565b9250506020612fde85828601612c90565b9150509250929050565b600060208284031215612ffe57612ffd612af8565b5b600061300c84828501612d45565b91505092915050565b600081519050919050565b600082825260208201905092915050565b6000819050602082019050919050565b61304a81612c6f565b82525050565b600061305b82612cd2565b9050919050565b61306b81613050565b82525050565b61307a81612b87565b82525050565b60c0820160008201516130966000850182613041565b5060208201516130a96020850182613062565b5060408201516130bc6040850182613062565b5060608201516130cf6060850182613062565b5060808201516130e26080850182613041565b5060a08201516130f560a0850182613071565b50505050565b60006131078383613080565b60c08301905092915050565b6000602082019050919050565b600061312b82613015565b6131358185613020565b935061314083613031565b8060005b8381101561317157815161315888826130fb565b975061316383613113565b925050600181019050613144565b5085935050505092915050565b600060208201905081810360008301526131988184613120565b905092915050565b6131a981612b87565b81146131b457600080fd5b50565b6000813590506131c6816131a0565b92915050565b600080604083850312156131e3576131e2612af8565b5b60006131f185828601612d45565b9250506020613202858286016131b7565b9150509250929050565b600067ffffffffffffffff82111561322757613226612e21565b5b61323082612c03565b9050602081019050919050565b600061325061324b8461320c565b612e81565b90508281526020810184848401111561326c5761326b612e1c565b5b613277848285612ecd565b509392505050565b600082601f83011261329457613293612e17565b5b81356132a484826020860161323d565b91505092915050565b600080600080608085870312156132c7576132c6612af8565b5b60006132d587828801612d45565b94505060206132e687828801612d45565b93505060406132f787828801612c90565b925050606085013567ffffffffffffffff81111561331857613317612afd565b5b6133248782880161327f565b91505092959194509250565b6000806040838503121561334757613346612af8565b5b600061335585828601612d45565b925050602061336685828601612d45565b9150509250929050565b7f4e487b7100000000000000000000000000000000000000000000000000000000600052602260045260246000fd5b600060028204905060018216806133b757607f821691505b6020821081036133ca576133c9613370565b5b50919050565b7f4552433732313a20617070726f76616c20746f2063757272656e74206f776e6560008201527f7200000000000000000000000000000000000000000000000000000000000000602082015250565b600061342c602183612bc8565b9150613437826133d0565b604082019050919050565b6000602082019050818103600083015261345b8161341f565b9050919050565b7f4552433732313a20617070726f76652063616c6c6572206973206e6f7420746f60008201527f6b656e206f776e6572206e6f7220617070726f76656420666f7220616c6c0000602082015250565b60006134be603e83612bc8565b91506134c982613462565b604082019050919050565b600060208201905081810360008301526134ed816134b1565b9050919050565b7f4d656e74696f6e20616d6f756e7420657175616c20746f20746865207072696360008201527f6520746f20636f6d706c65746520746865207075726368617365210000000000602082015250565b6000613550603b83612bc8565b915061355b826134f4565b604082019050919050565b6000602082019050818103600083015261357f81613543565b9050919050565b7f4552433732313a2063616c6c6572206973206e6f7420746f6b656e206f776e6560008201527f72206e6f7220617070726f766564000000000000000000000000000000000000602082015250565b60006135e2602e83612bc8565b91506135ed82613586565b604082019050919050565b60006020820190508181036000830152613611816135d5565b9050919050565b7f4552433732313a20696e76616c696420746f6b656e2049440000000000000000600082015250565b600061364e601883612bc8565b915061365982613618565b602082019050919050565b6000602082019050818103600083015261367d81613641565b9050919050565b7f4f6e6c79206974656d206f776e65722063616e20706572666f726d207468697360008201527f206f7065726174696f6e21000000000000000000000000000000000000000000602082015250565b60006136e0602b83612bc8565b91506136eb82613684565b604082019050919050565b6000602082019050818103600083015261370f816136d3565b9050919050565b7f5072696365206d75737420626520657175616c20746f206c697374696e67207060008201527f7269636521000000000000000000000000000000000000000000000000000000602082015250565b6000613772602583612bc8565b915061377d82613716565b604082019050919050565b600060208201905081810360008301526137a181613765565b9050919050565b7f4552433732313a2061646472657373207a65726f206973206e6f74206120766160008201527f6c6964206f776e65720000000000000000000000000000000000000000000000602082015250565b6000613804602983612bc8565b915061380f826137a8565b604082019050919050565b60006020820190508181036000830152613833816137f7565b9050919050565b7f4e487b7100000000000000000000000000000000000000000000000000000000600052601160045260246000fd5b600061387482612c6f565b915061387f83612c6f565b92508282019050808211156138975761389661383a565b5b92915050565b60006138a882612c6f565b91507fffffffffffffffffffffffffffffffffffffffffffffffffffffffffffffffff82036138da576138d961383a565b5b600182019050919050565b7f4e487b7100000000000000000000000000000000000000000000000000000000600052603260045260246000fd5b7f596f7520617265206e6f7420746865206f776e6572206f6620746865206d617260008201527f6b6574706c616365210000000000000000000000000000000000000000000000602082015250565b6000613970602983612bc8565b915061397b82613914565b604082019050919050565b6000602082019050818103600083015261399f81613963565b9050919050565b600081905092915050565b60006139bc82612bbd565b6139c681856139a6565b93506139d6818560208601612bd9565b80840191505092915050565b60006139ee82856139b1565b91506139fa82846139b1565b91508190509392505050565b6000613a1182612c6f565b9150613a1c83612c6f565b9250828203905081811115613a3457613a3361383a565b5b92915050565b7f4552433732313a207472616e736665722066726f6d20696e636f72726563742060008201527f6f776e6572000000000000000000000000000000000000000000000000000000602082015250565b6000613a96602583612bc8565b9150613aa182613a3a565b604082019050919050565b60006020820190508181036000830152613ac581613a89565b9050919050565b7f4552433732313a207472616e7366657220746f20746865207a65726f2061646460008201527f7265737300000000000000000000000000000000000000000000000000000000602082015250565b6000613b28602483612bc8565b9150613b3382613acc565b604082019050919050565b60006020820190508181036000830152613b5781613b1b565b9050919050565b7f4552433732313a206d696e7420746f20746865207a65726f2061646472657373600082015250565b6000613b94602083612bc8565b9150613b9f82613b5e565b602082019050919050565b60006020820190508181036000830152613bc381613b87565b9050919050565b7f4552433732313a20746f6b656e20616c7265616479206d696e74656400000000600082015250565b6000613c00601c83612bc8565b9150613c0b82613bca565b602082019050919050565b60006020820190508181036000830152613c2f81613bf3565b9050919050565b7f45524337323155524953746f726167653a2055524920736574206f66206e6f6e60008201527f6578697374656e7420746f6b656e000000000000000000000000000000000000602082015250565b6000613c92602e83612bc8565b9150613c9d82613c36565b604082019050919050565b60006020820190508181036000830152613cc181613c85565b9050919050565b60008190508160005260206000209050919050565b60006020601f8301049050919050565b600082821b905092915050565b600060088302613d2a7fffffffffffffffffffffffffffffffffffffffffffffffffffffffffffffffff82613ced565b613d348683613ced565b95508019841693508086168417925050509392505050565b6000819050919050565b6000613d71613d6c613d6784612c6f565b613d4c565b612c6f565b9050919050565b6000819050919050565b613d8b83613d56565b613d9f613d9782613d78565b848454613cfa565b825550505050565b600090565b613db4613da7565b613dbf818484613d82565b505050565b5b81811015613de357613dd8600082613dac565b600181019050613dc5565b5050565b601f821115613e2857613df981613cc8565b613e0284613cdd565b81016020851015613e11578190505b613e25613e1d85613cdd565b830182613dc4565b50505b505050565b600082821c905092915050565b6000613e4b60001984600802613e2d565b1980831691505092915050565b6000613e648383613e3a565b9150826002028217905092915050565b613e7d82612bbd565b67ffffffffffffffff811115613e9657613e95612e21565b5b613ea0825461339f565b613eab828285613de7565b600060209050601f831160018114613ede5760008415613ecc578287015190505b613ed68582613e58565b865550613f3e565b601f198416613eec86613cc8565b60005b82811015613f1457848901518255600182019150602085019450602081019050613eef565b86831015613f315784890151613f2d601f891682613e3a565b8355505b6001600288020188555050505b505050505050565b7f5072696365206d7573742062652067726561746572207468616e207a65726f21600082015250565b6000613f7c602083612bc8565b9150613f8782613f46565b602082019050919050565b60006020820190508181036000830152613fab81613f6f565b9050919050565b6000608082019050613fc76000830187612d04565b613fd46020830186612d04565b613fe16040830185612ded565b613fee6060830184612b93565b95945050505050565b7f436f756e7465723a2064656372656d656e74206f766572666c6f770000000000600082015250565b600061402d601b83612bc8565b915061403882613ff7565b602082019050919050565b6000602082019050818103600083015261405c81614020565b9050919050565b7f4552433732313a20617070726f766520746f2063616c6c657200000000000000600082015250565b6000614099601983612bc8565b91506140a482614063565b602082019050919050565b600060208201905081810360008301526140c88161408c565b9050919050565b7f4552433732313a207472616e7366657220746f206e6f6e20455243373231526560008201527f63656976657220696d706c656d656e7465720000000000000000000000000000602082015250565b600061412b603283612bc8565b9150614136826140cf565b604082019050919050565b6000602082019050818103600083015261415a8161411e565b9050919050565b600081519050919050565b600082825260208201905092915050565b600061418882614161565b614192818561416c565b93506141a2818560208601612bd9565b6141ab81612c03565b840191505092915050565b60006080820190506141cb6000830187612d04565b6141d86020830186612d04565b6141e56040830185612ded565b81810360608301526141f7818461417d565b905095945050505050565b60008151905061421181612b2e565b92915050565b60006020828403121561422d5761422c612af8565b5b600061423b84828501614202565b91505092915050565b7f4e487b7100000000000000000000000000000000000000000000000000000000600052601260045260246000fd5b600061427e82612c6f565b915061428983612c6f565b92508261429957614298614244565b5b828204905092915050565b60006142af82612c6f565b91506142ba83612c6f565b9250826142ca576142c9614244565b5b82820690509291505056fea264697066735822122028080f8591d3318424ec1b144c001f75ee88d139d294124261a0ac55a8a0ef3264736f6c63430008110033",
  "linkReferences": {},
  "deployedLinkReferences": {}
}